:101C0E00535443313546324B363053320D0A5561FB
:101C1E007274204F4E20210D0A0078D6E1B5C4BC57
:101C2E00D0BDC7A3BA000D0A0079D6E1B5C4BCD0A9
:101C3E00BDC7A3BA007AD6E1B5C4BCD0BDC7A3BA9E
:101C4E000078D6E1BCD3CBD9B6C8A3BA0079D6E119
:101C5E00BCD3CBD9B6C8A3BA007AD6E1BCD3CBD904
:101C6E00B6C8A3BA00B5B1C7B0CEC2B6C8CEAAA385
:021C7E00BA00AA
:06206C000430000000003A
:10116700121F671220177BFF7A1C790E121F261297
:101177001DFE7F017E0012167BAC06AD07EC120E3A
:101187002B8F338E328D318C307BFF7A1C7928126E
:101197001F26122065E4FBFA79207841AF33AE327F
:1011A700AD31AC30120CFF750C0112185E122065C0
:1011B7007BFF7A1C7934121F267F027E0012167B72
:1011C700AC06AD07EC120E2B8F338E328D318C307F
:1011D7007BFF7A1C7937121F26122065E4FBFA7908
:1011E700207841AF33AE32AD31AC30120CFF750C05
:1011F7000112185E1220657BFF7A1C7934121F26B4
:101207007F037E0012167BAC06AD07EC120E2B8F08
:10121700338E328D318C307BFF7A1C7943121F2637
:10122700122065E4FBFA79207841AF33AE32AD3155
:10123700AC30120CFF750C0112185E1220657BFF93
:101247007A1C7934121F267F047E0012167BAC06A7
:10125700AD07EC120E2B8F338E328D318C307BFF26
:101267007A1C794F121F26122065E4FBFA79C87899
:1012770042AF33AE32AD31AC30120CFF750C0112F8
:10128700185E1220657BFF7A1C7934121F267F05B2
:101297007E0012167BAC06AD07EC120E2B8F338E39
:1012A700328D318C307BFF7A1C795B121F2612201E
:1012B70065E4FBFA79C87842AF33AE32AD31AC3072
:1012C700120CFF750C0112185E1220657BFF7A1C49
:1012D7007934121F267F067E0012167BAC06AD07F7
:1012E700EC120E2B8F338E328D318C307BFF7A1CB4
:1012F7007967121F26122065E4FBFA79C87842AF96
:1013070033AE32AD31AC30120CFF750C0112185EE2
:101317001220657BFF7A1C7934121F267F077E0017
:1013270012167BAC06AD07EC120E2B8F338E328D67
:10133700318C307BFF7A1C7973121F26122065E4EB
:10134700FBFA79C87842AF33AE32AD31AC30120C0C
:10135700FF750C0112185E1220657BFF7A1C793429
:10136700121F267BFF7A1C7934121F2612201702C0
:021377001179EA
:0620650000007F1BDFFEFE
:01206B002252
:0E20170000007F5C7E327DEEDDFEDEFCDFFA37
:012025002298
:03002300021FB405
:101FB400C0D0309809C298859980A29A92CC309961
:081FC40004C299C202D0D03220
:0D204300496E697420446F6E65210D0A001E
:101DFE00759601E4F595D2A0C2A1C2A7122017E4F0
:101E0E00FD7F6B121F9B7D077F19121F9B7D067F27
:101E1E001A121F9B7D187F1B121F9B7D017F1C12A8
:0B1E2E001F9B7BFF7A207943021F26D8
:0F202600D2A3D2A2122065C2A3122065C2A222A9
:0C205000C2A3D2A2122065D2A302206518
:0E203500A20092A3D2A2122065C2A2022065D0
:101FE400D2A2122065A2A39200C2A2122065A2006E
:011FF40022CA
:021ED3008F0C72
:101ED500E4F50DC3E50D9408748094805016E50C67
:101EE50025E0F50C92A3D2A2122065C2A2122065AC
:091EF500050D80DF121FE440FB23
:011EFE0022C1
:101EA400E4F50DD2A3F50CC3E50C9408748094807A
:101EB400501AE50D25E0F50DD2A2122065A2A3E487
:0E1EC40033420DC2A2122065050C80DBAF0D6B
:011ED20022ED
:101F9B008F088D091220267FD0121ED3AF08121E78
:091FAB00D3AF09121ED30220502D
:021EFF008F0A48
:101F01001220267FD0121ED3AF0A121ED312202612
:101F11007FD1121ED3121EA48F0BD20012203512B4
:041F21002050AF0B92
:011F25002299
:021F4B008F08FD
:101F4D00121EFF8F09E50804FF121EFFAD07E509FC
:091F5D00FE7C00E42DFFEC3EFEC9
:011F66002258
:101E7200EF24FE60141460151460161460171460C9
:101E820018240570197F3B80127F3D800E7F3F80B2
:101E92000A7F4380067F4580027F47021F4BE4FE94
:021EA200FF221D
:0C1379008E088F098C0A8D0B8A0C8B0DDE
:1013850090000412106800000000E50E14700302BE
:1013950014231470030214992402600302152DAC62
:1013A5000AAD0BEC120E2BC004C005C006C007AC7D
:1013B5000AAD0BEC120E2BD003D002D001D00012D7
:1013C5000BF6C004C005C006C007AC08AD09EC1299
:1013D5000E2BC004C005C006C007AC08AD09EC1251
:1013E5000E2BD003D002D001D000120BF6D003D0C3
:1013F50002D001D000120B051219ECC004C005C0C3
:1014050006C007AC0CAD0DEC120E2BA804A905AA5D
:1014150006AB07D007D006D005D00402150DAC0CDD
:10142500AD0DEC120E2BC004C005C006C007AC0CF8
:10143500AD0DEC120E2BD003D002D001D000120B53
:10144500F6C004C005C006C007AC0AAD0BEC120E11
:101455002BC004C005C006C007AC0AAD0BEC120ECC
:101465002BD003D002D001D000120BF6D003D0024E
:10147500D001D000120B051219ECC004C005C0063E
:10148500C007AC08AD09EC120E2BD003D002D00179
:10149500D0008074AC0CAD0DEC120E2BC004C00551
:1014A500C006C007AC0CAD0DEC120E2BD003D0025C
:1014B500D001D000120BF6C004C005C006C007ACB1
:1014C50008AD09EC120E2BC004C005C006C007AC60
:1014D50008AD09EC120E2BD003D002D001D00012BA
:1014E5000BF6D003D002D001D000120B051219EC77
:1014F500C004C005C006C007AC0AAD0BEC120E2B2C
:10150500D003D002D001D000120CFF9000001210C1
:101515005C900000E0FCA3E0FDA3E0FEA3E0FF1269
:10152500157390000412105CE4FFFE7DE17C44908D
:101535000004E0F8A3E0F9A3E0FAA3E0FB120BF640
:0E1545007BF97A0F79497840120CFF020E6490
:10167B00EE600302176EEF14B40700400302176EFF
:10168B0090169975F003A4C58325F0C583730216D4
:10169B00AE0216CE0216EE02171702171B02171F09
:1016AB0002173F7F01121E72C006C0077F02121E77
:1016BB0072C006C0077F03121E72AA06AB07750E17
:1016CB0001803E7F01121E72C006C0077F02121EF0
:1016DB0072C006C0077F03121E72AA06AB07750EF7
:1016EB0002801E7F01121E72C006C0077F02121EEF
:1016FB0072C006C0077F03121E72AA06AB07E4F581
:10170B000ED005D004D007D0060213797F048006D3
:10171B007F0580027F06121E72AC06AD07EC120E1F
:10172B002BE4FBFA79807846120CFFE4FBFA79750F
:10173B00784480297F41121F4BAC06AD07EC120E8B
:10174B002BE4FBFA79AA7843120CFF7BB87A1E794B
:10175B00127842120B05E4FBFA79C87842120BF6A9
:07176B00020E64E4FEFF2200
:101F6700E5A2543FF5A275985075D7CC75D6FF7585
:0A1F77008E14438E01D2ACD2AF22CB
:09205C002002FDEFD202F59922E9
:101F26008B088A09890AAB08AA09A90A120F326026
:101F360013050AE50A7002050914F9120F32FF1299
:051F4600205C80E22296
:081772008F108E0F8D0E8C0DFF
:10177A00E4F514F513F512F511F515EC3350187F4D
:10178A002D12205CAF10AE0FAD0EAC0D12102E8FC5
:10179A00108E0F8D0E8C0DAF10AE0FAD0EAC0DEC82
:1017AA004D4E4F70057F3002205CAF10AE0FAD0E6C
:1017BA00AC0DEC4D4E4F6061AF14AE13AD12AC11CF
:1017CA00E47B0AFAF9F8120FDF8F148E138D128C4C
:1017DA0011E47B0AFAF9F8AF10AE0FAD0EAC0D1298
:1017EA001D37AC00AD01AE02E5142BF514E5133E2E
:1017FA00F513E5123DF512E5113CF511AF10AE0FE8
:10180A00AD0EAC0DE47B0AFAF9F8121D378F108E73
:10181A000F8D0E8C0D05158091AF151515EF6033E0
:10182A00E47B0AFAF9F8AF14AE13AD12AC11121D2B
:10183A0037EB2430FF12205CAF14AE13AD12AC119B
:10184A00E47B0AFAF9F8121D378F148E138D128C65
:03185A001180C634
:01185D002268
:08185E008F0B8E0A8D098C0826
:10186600900000121068000000009000041210683A
:1018760000000000E4FFFEFDFCAB0BAA0AA909A8C4
:1018860008120D9C50187F2D12205CAF0BAE0AADCE
:1018960009AC08120E158F0B8E0A8D098C08AF0B3A
:1018A600AE0AAD09AC08120E6490000012105CAFCF
:1018B6000BAE0AAD09AC08C004C005C006C007904F
:1018C6000000E0FCA3E0FDA3E0FEA3E0FFEC120EA7
:1018D60026A804A905AA06AB07D007D006D005D0CE
:1018E60004120B018F0B8E0A8D098C08E50C601E05
:1018F600AF0BAE0AAD09AC08E4FBFA7920784112C9
:101906000BF68F0B8E0A8D098C08150C80DE900065
:1019160000E0FCA3E0FDA3E0FEA3E0FF1217727F48
:101926002E12205CAF0BAE0AAD09AC08120E640293
:02193600177226
:100026000000000000000000002F00000000070094
:10003600070000147F147F1400242A7F2A1200620E
:1000460064081323003649552250000005030000BA
:1000560000001C224100000041221C000014083E42
:1000660008140008083E0808000000A06000000808
:10007600080808080000606000000020100804025C
:10008600003E5149453E0000427F4000004261511A
:100096004946002141454B31001814127F100027B4
:1000A60045454539003C4A49493000017109050377
:1000B60000364949493600064949291E00003636A8
:1000C600000000005636000000081422410000140B
:1000D60014141414000041221408000201510906E8
:1000E60000324959513E007C1211127C007F494969
:1000F6004936003E41414122007F4141221C007F9A
:1001060049494941007F09090901003E4149497AA7
:10011600007F0808087F0000417F41000020404121
:100126003F01007F08142241007F40404040007F8D
:10013600020C027F007F0408107F003E4141413ED1
:10014600007F09090906003E4151215E007F091919
:1001560029460046494949310001017F0101003F16
:100166004040403F001F2040201F003F4038403F96
:1001760000631408146300070870080700615149FA
:10018600454300007F41410000552A552A5500008D
:1001960041417F000004020102040040404040400B
:1001A600000001020400002054545478007F4844A3
:1001B600443800384444442000384444487F0038DA
:1001C6005454541800087E0901020018A4A4A47C03
:1001D600007F080404780000447D400000408084CD
:1001E6007D00007F102844000000417F4000007C15
:1001F60004180478007C0804047800384444443821
:1002060000FC242424180018242418FC007C08046C
:10021600040800485454542000043F444020003C45
:100226004040207C001C2040201C003C4030403CCC
:10023600004428102844001CA0A0A07C004464545C
:100246004C441414141414140000000000000000A0
:100256000000000000000000000000F800000000A0
:10026600000000333000000000100C06100C0600E1
:10027600000000000000000040C07840C078400048
:10028600043F04043F040400007088FC08300000AA
:10029600001820FF211E0000F008F000E018000002
:1002A60000211C031E211E0000F0088870000000BB
:1002B6001E2123241927211010160E00000000000D
:1002C6000000000000000000000000E0180402002A
:1002D600000000071820400000020418E00000009B
:1002E6000040201807000000404080F08040400099
:1002F6000202010F01020200000000F000000000EF
:100306000101011F010101000000000000000000C2
:1003160080B0700000000000000000000000000037
:1003260000010101010101010000000000000000C0
:10033600003030000000000000000000806018045B
:10034600006018060100000000E010080810E00038
:10035600000F102020100F00001010F80000000001
:100366000020203F20200000007008080888700048
:1003760000302824222130000030088888483000C8
:100386000018202020110E000000C02010F80000E8
:1003960000070424243F240000F808888808080081
:1003A6000019212020110E0000E010888818000096
:1003B600000F112020110E0000380808C838080068
:1003C6000000003F000000000070880808887000E8
:1003D600001C222121221C0000E010080810E00069
:1003E6000000312222110F00000000C0C0000000F2
:1003F6000000003030000000000000800000000017
:10040600000080600000000000008040201008000E
:1004160000010204081020004040404040404000D7
:1004260004040404040404000008102040800000B2
:100436000020100804020100007048080808F000B7
:100446000000003036010000C030C828E810E00087
:100456000718272423140B000000C038E000000012
:10046600203C23020227382008F88888887000007C
:10047600203F202020110E00C03008080808380050
:10048600071820202010080008F808080810E000C7
:10049600203F202020100F0008F88888E808100068
:1004A600203F20202320180008F88888E80810003C
:1004B600203F200003000000C03008080838000074
:1004C60007182020221E020008F808000008F80875
:1004D600203F210101213F20000808F808080000FC
:1004E6000020203F2020000000000808F80808002F
:1004F600C08080807F00000008F888C028180800A7
:10050600203F20012638200008F8080000000000DF
:10051600203F20202020300008F8F800F8F80800D6
:10052600203F003F003F200008F830C00008F808D0
:10053600203F200007183F00E01008080810E000E0
:100546000F10202020100F0008F808080808F000F7
:10055600203F210101010000E01008080810E0001A
:100566000F18242438504F0008F8888888887000AF
:10057600203F2000030C302000708808080838004F
:100586000038202121221C00180808F80808180045
:100596000000203F2000000008F808000008F808C6
:1005A600001F202020201F000878880000C8380877
:1005B600000007380E010000F80800F80008F800EF
:1005C600033C0700073C0300081868808068180889
:1005D60020302C03032C30200838C800C838080007
:1005E6000000203F2000000010080808C838080056
:1005F6002038262120201800000000FE02020200FA
:100606000000007F40404000000C30C000000000A9
:10061600000000010638C00000020202FE000000D1
:10062600004040407F000000000004020202040077
:1006360000000000000000000000000000000000B4
:10064600808080808080808000020204000000009C
:100656000000000000000000000080808080000094
:100666000019242222223F2008F800808000000082
:10067600003F112020110E00000000808080000045
:10068600000E112020201100000000808088F80054
:10069600000E112020103F20000080808080000086
:1006A600001F222222221300008080F088888818EA
:1006B6000020203F202000000000808080808000F5
:1006C600006B94949493600008F80080808000008A
:1006D600203F210000203F20008098980000000065
:1006E6000020203F20200000000000809898000095
:1006F60000C08080807F000008F8000080808000B5
:10070600203F24022D302000000808F800000000D9
:100716000020203F20200000808080808080800094
:10072600203F20003F20003F808000808080000026
:10073600203F210000203F200000808080800000B4
:10074600001F202020201F008080008080000000E5
:1007560080FFA12020110E00000000808080800014
:10076600000E112020A0FF80808080008080800005
:1007760020203F2120000100000080808080800032
:100786000033242424241900008080E080800000A7
:100796000000001F202000008080000000808000F4
:1007A600001F202020103F20808080000080808055
:1007B60000010E30080601008080008000808080E5
:1007C6000F300C030C300F0000808000808080000A
:1007D6000020312E0E312000808080000080808035
:1007E60080818E70180601000080808080808000E5
:1007F6000021302C2221300000000000807C020203
:1008060000000000003F404000000000FF00000024
:1008160000000000FF0000000002027C80000000D3
:100826000040403F000000000006010102020404EF
:10083600000000000000000000028282828282FE28
:100846008282828282020000000000000000000016
:100856000000000000000000404040404040407F53
:1008660040404040404040000000000000000000C2
:1008760000000000000000000000007F4949C9494F
:100886004949497F00000000000000000000000008
:10089600000000000000000080848494A4C48487C3
:1008A60084C4A4948484800000000000000000003A
:1008B600000000000000000000FE00FC00FF00F247
:1008C600121AD61212F20200000000000000000008
:1008D6000000000000000000403F003F00FF804F86
:1008E60020180710204F80000000000000000000C4
:1008F600000000000000000000F80C0B0808F8409B
:10090600308F080808F80000000000000000000012
:100916000000000000000000007F212121217F004F
:1009260000004380403F000000000000000000007F
:10093600000000000000000000040404040404FC9D
:100946000404040404040000000000000000000089
:100956000000000000000000202020202020203F72
:1009660020202020202020000000000000000000A1
:100976000000000000000000008060F80740300F13
:10098600F888888888080800000000000000000039
:100996000000000000000000010000FF0000000051
:1009A600FF0808080808000000000000000000001A
:1009B6000000000000000000100C2424A46425267A
:1009C6002424A42424140C000000000000000000CD
:1009D6000000000000000000404048494949497FA6
:1009E6004949494B48404000000000000000000013
:1009F6000000000000000000000000FE82828282EB
:100A0600828282FE0000000000000000000000005C
:100A16000000000000000000000000FF40404040D1
:100A2600404040FF00000000000000000000000001
:100A360000000000000000000004FF242424FF043E
:100A460000FE222222FE000000000000000000003E
:100A5600000000000000000088482F090919AF486F
:100A6600300F0242827F00000000000000000000FC
:100A7600000000000000000000FC848484FC0010DC
:100A860010101010FF101000000000000000000001
:100A96000000000000000000003F1010103F0000A2
:100AA600010640807F0000000000000000000000FA
:100AB600000000000000000000F8010600F012121D
:100AC60012F2020202FE0000000000000000000018
:100AD600000000000000000000FF0000001F1111D0
:100AE600111F0040807F0000000000000000000091
:080AF6000000000000000000F8
:101F8100EF4E60157D087C07ED1DAA0470011C4A07
:091F910070F6EF1F70EA1E80E7F4
:011F9A002224
:101D7B00F583E5822CF582E43583F583E493FF7DCF
:011D8B000156
:101D8C00ED6004D2858002C285C284E4FEEEC39469
:101D9C0008748094805015C290EF30E704D287808D
:101DAC0002C287D290EF25E0FF0E80E1D284D2856B
:011DBC002204
:10000300AC07ED24B0FFE4FD121D8CEC54F0C45496
:100013000F4410FF121D8CEC540F4401FF021D8C82
:101FF500E4FD7F8D121D8C7F14121D8C7FAF021D99
:012005008C4E
:10200600E4FD7F8D121D8C7F10121D8C7FAE021D8C
:012016008C3D
:101E3900E4FCECC3940874809480502CEC24B0FF2B
:101E4900E4FD121D8CE4FF121D8C7F10121D8CE421
:101E5900FBEBC3948074809480500A7D01E4FF12E7
:081E69001D8C0B80EC0C80CAFB
:011E7100224E
:061B1E00AA07A905AF03B0
:101B2400E4FCEF24E0FBEAD3947F748094804004C7
:101B3400E4FA0909AF02AD01120003E4FCECC3941A
:101B44000874809480501D75F010EBA42CF582E489
:101B540035F0F583E582244EF582E5833402121DC7
:101B6400850C80D9AF02E904FD120003E4FCECC348
:101B7400940874809480501D75F010EBA42CF582A9
:101B8400E435F0F583E5822456F582E583340212C8
:051B94001D850C80D945
:011B99002229
:041FCC008F34A905A0
:101FD0007F017E00AD0119ED6009AD347C00120F68
:031FE0007880F115
:011FE30022DB
:081B9A008F218D228A238B2488
:101BA200E4F529F527E527C39525505FC3E525957B
:101BB2002714FD7F0A121FCCAC23AD24CFCDCFCE8C
:101BC200CCCE120F8A7C007D0A120F8A8D28E5295D
:101BD2007020E52514FFE527C39F5016E528700FF6
:101BE200E526C3138527F0A42521FF7B20801375EA
:101BF2002901E526C3138527F0A42521FFE5282422
:0B1C020030FBAD22121B1E0527809A4C
:011C0D0022B4
:0A1DBD008F2A8D2B8B2C8A2D892E86
:101DC700E4F52FAB2CAA2DA92E852F82758300123F
:101DD7000F4BFB6021AD2BAF2A121B1E7408252A5F
:101DE700F52AD39478748094804007E4F52A052B6C
:061DF700052B052F80CD35
:011DFD0022C3
:041CE200AA07A9059F
:101CE600E4F535120003E4FCECC394107480948090
:101CF600501575F040EBA4243EF582E5F034081249
:101D06001D7B05350C80E1AF02E904FD120003E4FA
:101D1600FCECC3941074809480501575F040EBA4CD
:101D2600245EF582E5F03408121D7B05350C80E152
:011D3600228A
:041C80008F168B1818
:101C8400E4F51DF51EE5195407700BE5191313133C
:101C9400541FF51F800AE519131313541F04F51F6D
:101CA4008D1FE51FC395195034AD1FAF16120003E5
:101CB400AC16ECC395185021AB1AAA1BA91C051E1F
:101CC400E51EAE1D7002051D14F5828E83120F4BA6
:0D1CD400FF7D01121D8C0C80D9051F80C5FD
:011CE10022E0
:10193800D2867F647E00121F81C2867F647E001279
:101948001F81D286E4FD7FAE121D8CE4FF121D8C30
:101958007F10121D8C7F40121D8C7F81121D8C7F81
:10196800CF121D8C7FA1121D8C7FC8121D8C7FA6E3
:10197800121D8C7FA8121D8C7F3F121D8C7FD312E5
:101988001D8CE4FF121D8C7FD5121D8C7F80121DCB
:101998008C7FD9121D8C7FF1121D8C7FDA121D8C61
:1019A8007F12121D8C7FDB121D8C7F40121D8C7FD5
:1019B80020121D8C7F02121D8C7F8D121D8C7F14AE
:1019C800121D8C7FA4121D8C7FA6121D8C7FAF1256
:1019D8001D8C7FAF121D8C121E39E4FDFF0200031F
:100AFE00020ED0E86480F8E933E83360110460F048
:100B0E00ED33EC337009E8FCE9FDEAFEEBFF22045D
:100B1E0060DED3EB9FEA9EE99DE8C2E78CF0C2F758
:100B2E0095F0400CE8CCF8E9CDF9EACEFAEBCFFB24
:100B3E00120E9B85D0F05804700320D5B3E80470D4
:100B4E00075002B2D5020EDA92D5EC0460F7E4CC6F
:100B5E00C0E0C398F8603B94186008400DD0E0FBED
:100B6E00020EB2E4FBFAC9FC8028E830E406E4C9C0
:100B7E00FBE4CAFCE830E305E4C9CACBFCE8540741
:100B8E006010F8C3E913F9EA13FAEB13FBEC13FC4C
:100B9E00D8F130F52FC3E49CFCEF9BFFEE9AFEEDEF
:100BAE0099FDD0E0FBEF4E4D4C701222DB03020E8E
:100BBE00D7EC2CFCEF33FFEE33FEED33FDED30E7DB
:100BCE00EB020EB2EF2BFFEE3AFEED39FDD0E0FB5D
:100BDE0050130BBB0003020EDAED13FDEE13FEEF06
:080BEE0013FFEC13FC020EB230
:100BF600EC4D6011E8497017ED33EC3304600DE4F9
:100C0600FCFFFEFD22E933E8330470F8020ED01231
:100C16000E9B58046009E4CC248150062850090232
:100C26000EDA284003020ED7C0E0EB4A7044B980C2
:100C360006D0E0FB020EC6EF4E701CBD8008EBFF2F
:100C4600EAFEE9FD80EBE98DF0A4FEE5F0020CDF9B
:100C5600E9CDF9EAFEEBFFEF89F0A4FCE5F0CE89D9
:100C6600F0A42EFFE435F0CD89F0A42DFEE435F096
:100C76008067EF4E7005BD80D780C3EF8BF0A4ACC4
:100C8600F0EE8BF0A42CFCE435F0F8EF8AF0A42CFF
:100C9600E5F038FCE433CB8DF0A42CFCE5F03BF812
:100CA600EE8AF0A42CFCE5F038F8E433CF89F0A402
:100CB6002CFCE5F038CF3400CE89F0A42FFFE5F008
:100CC6003EFEE433C98DF0A42EFEE5F039CD8AF060
:100CD600A42FFFE5F03EFEE43DFD33D0E0FB5007D8
:100CE6000BBB000F020EDAEC2CFCEF33FFEE33FEEB
:060CF600ED33FD020EB219
:100CFC00020EDAEC5D046005E859047003020ED0B4
:100D0C00120E9B580460F6EC4860F2EC7004FDFE89
:100D1C00FF22C860DB2481C85009C39860025006CA
:100D2C00020ED79850CAF582E9294B4A7005AB825E
:100D3C00020EC675F0007C1A7880C3EF9BEE9AED1C
:100D4C0099400DC3EF9BFFEE9AFEED99FDE842F042
:100D5C00DC23ACF0D0E0FFD0E0FED0E0FDAB822095
:100D6C00E7101BEB60BAEC2CFCEF33FFEE33FEED1F
:100D7C0033FD020EB2E803F830E705C0F075F00061
:100D8C00EF2FFFEE33FEED33FD40B830E7C280AA03
:100D9C0074F8CC6480CCC86480C8F58204604FC3FE
:100DAC00EB9FF5F0EA9E42F0E99D42F0E89C45F09D
:100DBC00603C501DE5825FFFE582D313CB5BCBF427
:100DCC002B5582FB50280ABA002409B90020088050
:100DDC001DE5825BFBE582D313CF5FCFF4C3132FEA
:100DEC005582FF50090EBE00050DBD00010CC3EB72
:100DFC009FF5F0EA9E42F0E99D42F0E89C45F060D8
:090E0C0007CC4820E701B3EC22F9
:100E1500ED33EC33600A047003BD8004ECB2E7FCEB
:010E250022AA
:100E260075F020800E75F010800575F0087D007E47
:100E3600007F003392D530D50312102EEC334010CC
:100E4600EF33FFEE33FEED33FDEC33FCD5F0ED2250
:0E0E5600E5F0247EA2D513CC92E7CDCEFF228C
:100E6400EDD2E7CD33EC3392D524814006E4FFFE86
:100E7400FDFC22FCE4CFCECDCC24E0501174FF80E5
:100E8400EDC3CC13CCCD13CDCE13CECF13CF047082
:070E9400F030D5DE02102E44
:1019E800020ED022EDA2E7D2E7F9EC3340F260F321
:1019F800B4FF08ED547F70E8020EDAF82481C2E0E3
:101A0800C0E0F40428FAC313FCED92E7FD8C0F8DB7
:101A1800108E118F12EEA2E7E9BA7F02C3133400C9
:101A28009400FA75F091A4E5F013F494FE8AF0A4FA
:101A380033E5F033248CD313FDE492E7FE7F007C7A
:101A48003F758302ECC0E0F8EDC0E0F9EEC0E0FAC3
:101A5800EFC0E0FBAC0FAD10AE11AF12120CFFD00F
:101A6800E0FBD0E0FAD0E0F9D0E0F8120B05ED6425
:101A780080FD30E7011CD583CBED33CC33F8D0E0C3
:0A1A8800A2E71328C313CC13FD22BC
:10155300BE1249253E4CCCCDBEAAAAAB3F800000AB
:101563003E7ADBB03EED63383F24BC7D3F490FDB61
:10157300ED33ECC2E7CC339200B4FF13ED547F603C
:1015830003020ED07FDB7E0F7DC97C3F02166EC245
:1015930001C3947F401E7007EDD2E794904015EF8E
:1015A300FBEEFAEDF9ECF87F007E007D807C3F12C4
:1015B3000CFFD201ED33EC33248430E705E4C0E0C3
:1015C300806D04FAEDD2E754F0C333DAFD540734E7
:1015D300002323C0E0CCC0E0F8EDC0E0F9EEC0E0AA
:1015E300FAEFC0E0FBE4120E30EC24FEFC8C0F8D0E
:1015F300108E118F12120BF67B007A007980783FE0
:10160300120B05ECC50FB2E7FCEDC510FDEEC511DD
:10161300FEEFC512FFD0E0FBD0E0FAD0E0F9D0E056
:10162300F8120B05A80FA910AA11AB12120CFF8C0C
:101633000F8D108E118F129015537403120EE5A89F
:101643000FA910AA11AB12120BF6D0E0600F245FA2
:10165300F582E43415F58312104C120B0530010B9F
:101663007BDB7A0F79C978BF120B05ED33EC33605E
:0816730006ECA20092E7FC2244
:100E9B00E9D2E7C933E833F892D5EDD2E7CD33EC9D
:070EAB0033FC5002B2D52216
:100EB200EC30E7100FBF000C0EBE00080DBD0004A1
:100EC2000BEB6014A2D5EB13FCED92E7FD2274FF4D
:100ED200FCFDFEFF22E480F8A2D574FF13FC7D80A6
:030EE200E480EFBA
:100EE500C0E0EFFBEEFAEDF9ECF8120BF6D0E0F509
:100EF500F0EFFBEEFAEDF9ECF812103CA3A3A3A377
:100F0500E8C0E0E9C0E0EAC0E0EBC0E0C0F0120BE9
:100F1500F612104CA3A3A3A3120B05D0F0D0E0FB4F
:0D0F2500D0E0FAD0E0F9D0E0F8D5F0D42209
:03000000021A924F
:0C1A9200787FE4F6D8FD758135021AD982
:100F3200BB010689828A83E0225002E722BBFE02BD
:090F4200E32289828A83E49322F0
:100F4B00BB010CE58229F582E5833AF583E022505B
:100F5B0006E92582F8E622BBFE06E92582F8E222A5
:0D0F6B00E58229F582E5833AF583E49322BF
:100F7800EF8DF0A4A8F0CF8CF0A428CE8DF0A42E8D
:020F8800FE2247
:100F8A00BC000BBE0029EF8DF084FFADF022E4CC4B
:100F9A00F875F008EF2FFFEE33FEEC33FCEE9DEC14
:100FAA00984005FCEE9DFE0FD5F0E9E4CEFD22ED5A
:100FBA00F8F5F0EE8420D21CFEADF075F008EF2FA4
:100FCA00FFED33FD4007985006D5F0F222C398FD95
:050FDA000FD5F0EA2232
:100FDF00E88FF0A4CC8BF0A42CFCE98EF0A42CFCB1
:100FEF008AF0EDA42CFCEA8EF0A4CDA8F08BF0A42F
:100FFF002DCC3825F0FDE98FF0A42CCD35F0FCEB8E
:10100F008EF0A4FEA9F0EB8FF0A4CFC5F02ECD3952
:0F101F00FEE43CFCEAA42DCE35F0FDE43CFC22BF
:101D3700C2D5E830E70FB2D5E4C39BFBE49AFAE4D7
:101D470099F9E498F8EC30E717B2D5121D6D121027
:101D5700D5E4C39BFBE49AFAE499F9E498F8800385
:101D67001210D530D50DE4C39FFFE49EFEE49DFD20
:041D7700E49CFC22CA
:0E102E00C3E49FFFE49EFEE49DFDE49CFC22D3
:10103C00E493FC740193FD740293FE740393FF22FA
:10104C00E493F8740193F9740293FA740393FB22FA
:0C105C00ECF0A3EDF0A3EEF0A3EFF02207
:10106800A8828583F0D083D08212107F12107F125D
:10107800107F12107FE473E493A3C583C5F0C58382
:10108800C8C582C8F0A3C583C5F0C583C8C582C8D2
:011098002235
:101A9E00021167E493A3F8E493A34003F68001F2E6
:101AAE0008DFF48029E493A3F85407240CC8C33349
:101ABE00C4540F4420C8834004F456800146F6DF18
:101ACE00E4800B010204081020408090206CE47E1C
:101ADE00019360BCA3FF543F30E509541FFEE4930D
:101AEE00A360010ECF54C025E060A840B8E493A3D4
:101AFE00FAE493A3F8E493A3C8C582C8CAC583CAFF
:101B0E00F0A3C8C582C8CAC583CADFE9DEE780BEB6
:01207200006D
:1010990075F008758200EF2FFFEE33FECD33CDCC0E
:1010A90033CCC58233C5829BED9AEC99E582984091
:1010B9000CF582EE9BFEED9AFDEC99FC0FD5F0D66E
:1010C900E4CEFBE4CDFAE4CCF9A88222B800C1B998
:1010D9000059BA002DEC8BF084CFCECDFCE5F0CBD6
:1010E900F97818EF2FFFEE33FEED33FDEC33FCEB0F
:1010F90033FB10D703994004EB99FB0FD8E5E4F9CA
:10110900FA227818EF2FFFEE33FEED33FDEC33FCB6
:10111900C933C910D7059BE99A4007EC9BFCE99AAA
:10112900F90FD8E0E4C9FAE4CCFB2275F010EF2FEF
:10113900FFEE33FEED33FDCC33CCC833C810D707EF
:101149009BEC9AE899400AED9BFDEC9AFCE899F82A
:0E1159000FD5F0DAE4CDFBE4CCFAE4C8F922BD
:00000001FF
