:10000300535443313546324B363053320D0A556122
:0C0013007274205465737420210D0A00E3
:10004B001200A91200B475D7CC75D6FF758E144368
:10005B008E01D2ACD2AF7BFF7A00790312002680DF
:01006B00FE96
:0B00A900759601E4F595D2A0C2A122DB
:0A00B400E5A2543FF5A27598502212
:0900BE002000FDEFD200F59922AB
:100026008B088A09890AAB08AA09A90A12006C601A
:1000360013050AE50A7002050914F912006CFF128D
:0500460000BE80E22273
:0300230002008553
:10008500C0D0309809C298859980A29A92CC3099AF
:0800950004C299C200D0D03270
:0300000002009D5E
:0C009D00787FE4F6D8FD75812002004B4E
:10006C00BB010689828A83E0225002E722BBFE0292
:09007C00E32289828A83E49322C5
:00000001FF
