:100E6400535443313546324B363053320D0A5561B3
:100E74007274204F4E20210D0A0078D6E1B5C4BC0F
:100E8400D0BDC7A3BA000D0A0079D6E1B5C4BCD061
:100E9400BDC7A3BA007AD6E1B5C4BCD0BDC7A3BA56
:100EA4000078D6E1BCD3CBD9B6C8A3BA0079D6E1D1
:100EB400BCD3CBD9B6C8A3BA007AD6E1BCD3CBD9BC
:100EC400B6C8A3BA00B5B1C7B0CEC2B6C8CEAAA33D
:0F0ED400BA00496E697420446F6E65210D0A00E3
:0610D00004160000000000
:1007D5001210B675D7CC75D6FF758E14438E01D21F
:1007E500ACD2AF12107E7BFF7A0E7964120FA01285
:1007F5000F277F017E00120C49AC06AD07EC1203F2
:10080500538F198E188D178C167BFF7A0E797E12F1
:100815000FA01210C979207841120A721210C9125C
:100825000F9A7F027E00120C49AC06AD07EC12034D
:10083500538F198E188D178C167BFF7A0E798D12B2
:100845000FA01210C9E4FBFA79207841120A75123B
:1008550010C9120F9A7F037E00120C49AC06AD0732
:10086500EC1203538F198E188D178C167BFF7A0E99
:100875007999120FA01210C9E4FBFA792078411278
:100885000A751210C9120F9A7F047E00120C49AC2A
:1008950006AD07EC1203538F198E188D178C167B36
:1008A500FF7A0E79A5120FA01210C9120A6E121046
:1008B500C9120F9A7F057E00120C49AC06AD07ECF4
:1008C5001203538F198E188D178C167BFF7A0E79AC
:1008D500B1120FA01210C9120A6E1210C9120F9A86
:1008E5007F067E00120C49AC06AD07EC1203538F50
:1008F500198E188D178C167BFF7A0E79BD120FA0F5
:100905001210C9120A6E1210C9120F9A7F077E00C3
:10091500120C49AC06AD07EC1203538F198E188DD6
:10092500178C167BFF7A0E79C9120FA01210C91207
:100935000A6E1210C9120F9A120F9A12107E020730
:01094500F7BA
:100F2700759601E4F595D2A0C2A1C2A712107EE47E
:100F3700FD7F6B12103C7D077F1912103C7D067FE9
:100F47001A12103C7D187F1B12103C7D017F1C126A
:0B0F5700103C7BFF7A0E79D6020FA041
:0A10B600E5A2543FF5A27598502200
:0610C90000007F1BDFFEAA
:0110CF0022FE
:0E107E0000007F5C7E327DEEDDFEDEFCDFFAE0
:01108C002241
:0910C0002002FDEFD202F5992295
:060F9A007BFF7A0E798A4C
:100FA0008B088A09890AAB08AA09A90A12045A609F
:100FB00013050AE50A7002050914F912045AFF1212
:050FC00010C080E222D8
:0F108D00D2A3D2A21210C9C2A31210C9C2A222AA
:0C10AA00C2A3D2A21210C9D2A30210C926
:0E109C00A20092A3D2A21210C9C2A20210C9D1
:10106D00D2A21210C9A2A39200C2A21210C9A2004C
:01107D002250
:020FEE00AE074C
:100FF000E4FDEDC39408748094805013EE25E0FE68
:1010000092A3D2A21210C9C2A21210C90D80E3127B
:04101000106D40FB24
:0110140022B9
:100FC500E4FED2A3FDEDC39408748094805017EE1F
:100FD50025E0FED2A21210C9A2A3E4334206C2A2A2
:080FE5001210C90D80DFAF06F8
:010FED0022E1
:10103C00AC05AB0712108D7FD0120FEEAF03120F61
:09104C00EEAF04120FEE0210AA2F
:02101500AC0726
:1010170012108D7FD0120FEEAF04120FEE12108D4B
:101027007FD1120FEE120FC5AE07D20012109C121D
:0410370010AAAF0646
:01103B002292
:02000300AB0749
:10000500121015AA07EB04FF121015AD07EAFE7CC6
:0700150000E42DFFEC3EFEAC
:01001C0022C1
:060F62008E838F827F03E5
:100F6800EF24FE60141460151460161460171460E2
:100F780018240570197F3B80127F3D800E7F3F80CB
:100F88000A7F4380067F4580027F47020003E4FE14
:020F9800FF2236
:0C05FB008E088F098C0A8D0B8A0C8B0D6A
:100607009000041204FC00000000E50E14700302C1
:1006170006A514700302071B240260030207AFAC90
:100627000AAD0BEC120353C004C005C006C007ACEB
:100637000AAD0BEC120353D003D002D001D0001245
:10064700011EC004C005C006C007AC08AD09EC1206
:100657000353C004C005C006C007AC08AD09EC12BF
:100667000353D003D002D001D00012011ED003D013
:1006770002D001D00012002D120D32C004C005C0F7
:1006870006C007AC0CAD0DEC120353A804A905AACC
:1006970006AB07D007D006D005D00402078FAC0CF5
:1006A700AD0DEC120353C004C005C006C007AC0C67
:1006B700AD0DEC120353D003D002D001D0001201CC
:1006C7001EC004C005C006C007AC0AAD0BEC120380
:1006D70053C004C005C006C007AC0AAD0BEC12033B
:1006E70053D003D002D001D00012011ED003D00294
:1006F700D001D00012002D120D32C004C005C00673
:10070700C007AC08AD09EC120353D003D002D001E7
:10071700D0008074AC0CAD0DEC120353C004C005BF
:10072700C006C007AC0CAD0DEC120353D003D002CA
:10073700D001D00012011EC004C005C006C007AC1E
:1007470008AD09EC120353C004C005C006C007ACCE
:1007570008AD09EC120353D003D002D001D0001228
:10076700011ED003D002D001D00012002D120D328D
:10077700C004C005C006C007AC0AAD0BEC1203539A
:10078700D003D002D001D00012022790000012043B
:10079700F0900000E0FCA3E0FDA3E0FEA3E0FF1261
:1007A70009669000041204F0E4FFFE7DE17C4490AA
:1007B7000004E0F8A3E0F9A3E0FAA3E0FB12011EAE
:0E07C7007BF97A0F7949784012022702038CE1
:100C4900EE6003020D2AEF14B407004003020D2AD7
:100C5900900C6775F003A4C58325F0C58373020C56
:100C69007C020C96020CB0020CD3020CD7020CDBEE
:100C7900020CFB7F01120F68C006C0077F02120F2A
:100C890068120F62AA06AB07750E0180327F011246
:100C99000F68C006C0077F02120F68120F62AA060A
:100CA900AB07750E0280187F01120F68C006C007D6
:100CB9007F02120F68120F62AA06AB07E4F50EADA8
:100CC90082AC83D007D0060205FB7F0480067F052E
:100CD90080027F06120F68AC06AD07EC120353E4DD
:100CE900FBFA79807846120227E4FBFA7975784491
:100CF90080297F41120003AC06AD07EC120353E4CF
:100D0900FBFA79AA78431202277BB87A1E791278FE
:100D19004212002DE4FBFA79C8784212011E02033F
:050D29008CE4FEFF2236
:080B5D008F108E0F8D0E8C0D20
:100B6500E4F514F513F512F511F515EC3350187F6E
:100B75002D1210C0AF10AE0FAD0EAC0D1204C28F0A
:100B8500108E0F8D0E8C0DAF10AE0FAD0EAC0DECA3
:100B95004D4E4F70057F300210C0AF10AE0FAD0E39
:100BA500AC0DEC4D4E4F6061AF14AE13AD12AC11F0
:100BB500E47B0AFAF9F81204738F148E138D128CE4
:100BC50011E47B0AFAF9F8AF10AE0FAD0EAC0D12B9
:100BD5000EE3AC00AD01AE02E5142BF514E5133EB2
:100BE500F513E5123DF512E5113CF511AF10AE0F09
:100BF500AD0EAC0DE47B0AFAF9F8120EE38F108EF8
:100C05000F8D0E8C0D05158091AF151515EF603301
:100C1500E47B0AFAF9F8AF14AE13AD12AC11120E5B
:100C2500E3EB2430FF1210C0AF14AE13AD12AC11BC
:100C3500E47B0AFAF9F8120EE38F148E138D128CE9
:030C45001180C655
:010C48002289
:100A6E0079C87842E4FBFAAF19AE18AD17AC16127E
:050A7E000227750C01C8
:080A83008F0B8E0A8D098C080F
:100A8B009000001204FC000000009000041204FC13
:100A9B0000000000E4FFFEFDFCAB0BAA0AA909A8AD
:100AAB00081202C450187F2D1210C0AF0BAE0AAD46
:100ABB0009AC0812033D8F0B8E0A8D098C08AF0B06
:100ACB00AE0AAD09AC0812038C9000001204F0AF13
:100ADB000BAE0AAD09AC08C004C005C006C0079038
:100AEB000000E0FCA3E0FDA3E0FEA3E0FFEC12039B
:100AFB004EA804A905AA06AB07D007D006D005D08F
:100B0B00041200298F0B8E0A8D098C08E50C601ED0
:100B1B00AF0BAE0AAD09AC08E4FBFA7920784112B1
:100B2B00011E8F0B8E0A8D098C08150C80DE900030
:100B3B0000E0FCA3E0FDA3E0FEA3E0FF120B5D7F52
:100B4B002E1210C0AF0BAE0AAD09AC0812038C020B
:020B5B000B5D30
:0300230002105573
:10105500C0D0309809C298859980A29A92CC3099CF
:0810650004C299C202D0D0328E
:100026000203F8E86480F8E933E83360110460F00D
:10003600ED33EC337009E8FCE9FDEAFEEBFF220440
:1000460060DED3EB9FEA9EE99DE8C2E78CF0C2F73B
:1000560095F0400CE8CCF8E9CDF9EACEFAEBCFFB07
:100066001203C385D0F05804700320D5B3E804709A
:10007600075002B2D502040292D5EC0460F7E4CC34
:10008600C0E0C398F8603B94186008400DD0E0FBD0
:100096000203DAE4FBFAC9FC8028E830E406E4C986
:1000A600FBE4CAFCE830E305E4C9CACBFCE8540724
:1000B6006010F8C3E913F9EA13FAEB13FBEC13FC2F
:1000C600D8F130F52FC3E49CFCEF9BFFEE9AFEEDD2
:1000D60099FDD0E0FBEF4E4D4C701222DB0302037C
:1000E600FFEC2CFCEF33FFEE33FEED33FDED30E796
:1000F600EB0203DAEF2BFFEE3AFEED39FDD0E0FB23
:1001060050130BBB0003020402ED13FDEE13FEEFCA
:0801160013FFEC13FC0203DAF5
:10011E00EC4D6011E8497017ED33EC3304600DE4DB
:10012E00FCFFFEFD22E933E8330470F80203F812F7
:10013E0003C358046009E4CC2481500628500902F8
:10014E0004022840030203FFC0E0EB4A7044B9806A
:10015E0006D0E0FB0203EEEF4E701CBD8008EBFFF5
:10016E00EAFEE9FD80EBE98DF0A4FEE5F002020760
:10017E00E9CDF9EAFEEBFFEF89F0A4FCE5F0CE89BC
:10018E00F0A42EFFE435F0CD89F0A42DFEE435F079
:10019E008067EF4E7005BD80D780C3EF8BF0A4ACA7
:1001AE00F0EE8BF0A42CFCE435F0F8EF8AF0A42CE2
:1001BE00E5F038FCE433CB8DF0A42CFCE5F03BF8F5
:1001CE00EE8AF0A42CFCE5F038F8E433CF89F0A4E5
:1001DE002CFCE5F038CF3400CE89F0A42FFFE5F0EB
:1001EE003EFEE433C98DF0A42EFEE5F039CD8AF043
:1001FE00A42FFFE5F03EFEE43DFD33D0E0FB5007BB
:10020E000BBB000F020402EC2CFCEF33FFEE33FEAF
:06021E00ED33FD0203DADE
:10022400020402EC5D046005E8590470030203F85B
:100234001203C3580460F6EC4860F2EC7004FDFE4F
:10024400FF22C860DB2481C85009C39860025006AD
:100254000203FF9850CAF582E9294B4A7005AB8224
:100264000203EE75F0007C1A7880C3EF9BEE9AEDE2
:1002740099400DC3EF9BFFEE9AFEED99FDE842F025
:10028400DC23ACF0D0E0FFD0E0FED0E0FDAB822078
:10029400E7101BEB60BAEC2CFCEF33FFEE33FEED02
:1002A40033FD0203DAE803F830E705C0F075F00027
:1002B400EF2FFFEE33FEED33FD40B830E7C280AAE6
:1002C40074F8CC6480CCC86480C8F58204604FC3E1
:1002D400EB9FF5F0EA9E42F0E99D42F0E89C45F080
:1002E400603C501DE5825FFFE582D313CB5BCBF40A
:1002F4002B5582FB50280ABA002409B90020088033
:100304001DE5825BFBE582D313CF5FCFF4C3132FCC
:100314005582FF50090EBE00050DBD00010CC3EB54
:100324009FF5F0EA9E42F0E99D42F0E89C45F060BA
:0903340007CC4820E701B3EC22DC
:10033D00ED33EC33600A047003BD8004ECB2E7FCCE
:01034D00228D
:10034E0075F020800E75F010800575F0087D007E2A
:10035E00007F003392D530D5031204C2EC33401027
:10036E00EF33FFEE33FEED33FDEC33FCD5F0ED2233
:0E037E00E5F0247EA2D513CC92E7CDCEFF226F
:10038C00EDD2E7CD33EC3392D524814006E4FFFE69
:10039C00FDFC22FCE4CFCECDCC24E0501174FF80C8
:1003AC00EDC3CC13CCCD13CDCE13CECF13CF047065
:0703BC00F030D5DE0204C29F
:100D2E000203F822EDA2E7D2E7F9EC3340F260F3CA
:100D3E00B4FF08ED547F70E8020402F82481C2E08B
:100D4E00C0E0F40428FAC313FCED92E7FD8C0F8D7E
:100D5E00108E118F12EEA2E7E9BA7F02C313340090
:100D6E009400FA75F091A4E5F013F494FE8AF0A4C1
:100D7E0033E5F033248CD313FDE492E7FE7F007C41
:100D8E003F758302ECC0E0F8EDC0E0F9EEC0E0FA8A
:100D9E00EFC0E0FBAC0FAD10AE11AF12120227D0B8
:100DAE00E0FBD0E0FAD0E0F9D0E0F812002DED64CF
:100DBE0080FD30E7011CD583CBED33CC33F8D0E08A
:0A0DCE00A2E71328C313CC13FD2283
:10094600BE1249253E4CCCCDBEAAAAAB3F800000C4
:100956003E7ADBB03EED63383F24BC7D3F490FDB7A
:10096600ED33ECC2E7CC339200B4FF13ED547F6055
:10097600030203F87FDB7E0F7DC97C3F020A61C25A
:1009860001C3947F401E7007EDD2E794904015EFA7
:10099600FBEEFAEDF9ECF87F007E007D807C3F12DD
:1009A6000227D201ED33EC33248430E705E4C0E0BE
:1009B600806D04FAEDD2E754F0C333DAFD54073400
:1009C600002323C0E0CCC0E0F8EDC0E0F9EEC0E0C3
:1009D600FAEFC0E0FBE4120358EC24FEFC8C0F8D0A
:1009E600108E118F1212011E7B007A007980783FDB
:1009F60012002DECC50FB2E7FCEDC510FDEEC511DA
:100A0600FEEFC512FFD0E0FBD0E0FAD0E0F9D0E06F
:100A1600F812002DA80FA910AA11AB121202278CEA
:100A26000F8D108E118F12900946740312040DA8B3
:100A36000FA910AA11AB1212011ED0E0600F2452AA
:100A4600F582E43409F5831204E012002D30010B1F
:100A56007BDB7A0F79C978BF12002DED33EC33605A
:080A660006ECA20092E7FC225D
:1003C300E9D2E7C933E833F892D5EDD2E7CD33EC80
:0703D30033FC5002B2D522F9
:1003DA00EC30E7100FBF000C0EBE00080DBD000484
:1003EA000BEB6014A2D5EB13FCED92E7FD2274FF30
:1003FA00FCFDFEFF22E480F8A2D574FF13FC7D8089
:03040A00E480EF9C
:10040D00C0E0EFFBEEFAEDF9ECF812011ED0E0F5CD
:10041D00F0EFFBEEFAEDF9ECF81204D0A3A3A3A3D1
:10042D00E8C0E0E9C0E0EAC0E0EBC0E0C0F01201D6
:10043D001E1204E0A3A3A3A312002DD0F0D0E0FB65
:0D044D00D0E0FAD0E0F9D0E0F8D5F0D422EC
:03000000020DD816
:0C0DD800787FE4F6D8FD758120020E1F24
:10045A00BB010689828A83E0225002E722BBFE02A0
:09046A00E32289828A83E49322D3
:10047300E88FF0A4CC8BF0A42CFCE98EF0A42CFC28
:100483008AF0EDA42CFCEA8EF0A4CDA8F08BF0A4A6
:100493002DCC3825F0FDE98FF0A42CCD35F0FCEB05
:1004A3008EF0A4FEA9F0EB8FF0A4CFC5F02ECD39CA
:0F04B300FEE43CFCEAA42DCE35F0FDE43CFC2237
:100EE300C2D5E830E70FB2D5E4C39BFBE49AFAE43A
:100EF30099F9E498F8EC30E717B2D5120F191205F7
:100F030069E4C39BFBE49AFAE499F9E498F8800353
:100F130012056930D50DE4C39FFFE49EFEE49DFDF9
:040F2300E49CFC222C
:0E04C200C3E49FFFE49EFEE49DFDE49CFC224B
:1004D000E493FC740193FD740293FE740393FF2272
:1004E000E493F8740193F9740293FA740393FB2272
:0C04F000ECF0A3EDF0A3EEF0A3EFF0227F
:1004FC00A8828583F0D083D08212051312051312C3
:10050C000513120513E473E493A3C583C5F0C583E7
:10051C00C8C582C8F0A3C583C5F0C583C8C582C849
:01052C0022AC
:100DE4000207D5E493A3F8E493A34003F68001F249
:100DF40008DFF48029E493A3F85407240CC8C33310
:100E0400C4540F4420C8834004F456800146F6DFDE
:100E1400E4800B01020408102040809010D0E47E8E
:100E2400019360BCA3FF543F30E509541FFEE493D3
:100E3400A360010ECF54C025E060A840B8E493A39A
:100E4400FAE493A3F8E493A3C8C582C8CAC583CAC5
:100E5400F0A3C8C582C8CAC583CADFE9DEE780BE7D
:0110D6000019
:10052D0075F008758200EF2FFFEE33FECD33CDCC85
:10053D0033CCC58233C5829BED9AEC99E582984008
:10054D000CF582EE9BFEED9AFDEC99FC0FD5F0D6E5
:10055D00E4CEFBE4CDFAE4CCF9A88222B800C1B90F
:10056D000059BA002DEC8BF084CFCECDFCE5F0CB4D
:10057D00F97818EF2FFFEE33FEED33FDEC33FCEB86
:10058D0033FB10D703994004EB99FB0FD8E5E4F941
:10059D00FA227818EF2FFFEE33FEED33FDEC33FC2E
:1005AD00C933C910D7059BE99A4007EC9BFCE99A22
:1005BD00F90FD8E0E4C9FAE4CCFB2275F010EF2F67
:1005CD00FFEE33FEED33FDCC33CCC833C810D70767
:1005DD009BEC9AE899400AED9BFDEC9AFCE899F8A2
:0E05ED000FD5F0DAE4CDFBE4CCFAE4C8F92235
:00000001FF
