:1000B500535443313546324B363053320D0A556170
:1000C5007274204F4E20210D0A000D0A00496E69F9
:0A00D5007420446F6E65210D0A00CF
:1000260012021375D7CC75D6FF758E14438E01D286
:10003600ACD2AF750B551201CF7BFF7A0079B512A2
:10004600015612007A7F3C12012F8F0BE50B75F0DB
:1000560064842430FF1201B5E50B75F00A841201A1
:10006600ACE50B1201AC7BFF7A0079CF1201561278
:0400760001CF80D165
:10007A00759601E4F595D2A0C2A1C2A71201CFE4F8
:10008A00FD7F6B1200037D077F191200037D067F37
:10009A001A1200037D187F1B1200037D017F1C12B8
:0B00AA0000037BFF7A0079D2020156B0
:0A021300E5A2543FF5A275985022B1
:06001C0000007F1BDFFE67
:0100220022BB
:0E01CF0000007F5C7E327DEEDDFEDEFCDFFA9E
:0101DD0022FF
:0901AC0075F00A84E5F02430FF2F
:0901B5002000FDEFD200F59922B3
:100156008B088A09890AAB08AA09A90A12017B60D9
:1001660013050AE50A7002050914F912017BFF124C
:0501760001B580E2224A
:0F01DE00D2A3D2A212001CC2A312001CC2A222E2
:0C01FB00C2A3D2A212001CD2A302001C5E
:0E01ED00A20192A3D2A212001CC2A202001C08
:1001BE00D2A212001CA2A39201C2A212001CA20182
:0101CE00220E
:02010800AE0740
:10010A00E4FDEDC39408748094805013EE25E0FE5C
:10011A0092A3D2A212001CC2A212001C0D80E312EA
:04012A0001BE40FBD7
:01012E0022AE
:1000DF00E4FED2A3FDEDC39408748094805017EE14
:1000EF0025E0FED2A212001CA2A3E4334206C2A254
:0800FF0012001C0D80DFAF06AA
:0101070022D5
:10000300AC05AB071201DE7FD0120108AF0312016A
:0900130008AF041201080201FB10
:02012F00AC071B
:100131001201DE7FD0120108AF041201081201DEA4
:100141007FD11201081200DFAE07D2011201ED12B8
:0401510001FBAF06F9
:010155002287
:0300230002019443
:10019400C0D0309809C298859980A29A92CC30999F
:0801A40004C299C200D0D03260
:03000000020207F2
:0C020700787FE4F6D8FD75812002002607
:10017B00BB010689828A83E0225002E722BBFE0282
:09018B00E32289828A83E49322B5
:00000001FF
