:100DF000535443313546324B363053320D0A556128
:100E00007274204F4E20210D0A0078D6E1B5C4BC83
:100E1000D0BDC7A3BA000D0A0079D6E1B5C4BCD0D5
:100E2000BDC7A3BA007AD6E1B5C4BCD0BDC7A3BACA
:100E30000078D6E1BCD3CBD9B6C8A3BA0079D6E145
:100E4000BCD3CBD9B6C8A3BA007AD6E1BCD3CBD930
:100E5000B6C8A3BA00496E697420446F6E65210D4F
:020E60000A0086
:06104F0004160000000081
:1007D50012103575D7CC75D6FF758E14438E01D2A0
:1007E500ACD2AF120FFD7BFF7A0D79F0120F1F12FD
:1007F5000EA67F017E00120CBFAC06AD07EC1203FE
:10080500538F198E188D178C167BFF7A0E790A1265
:100815000F1F121048120A36121048120F197F02C4
:100825007E00120CBFAC06AD07EC1203538F198E78
:10083500188D178C167BFF7A0E7919120F1F12105F
:1008450048120A36121048120F197F037E00120C47
:10085500BFAC06AD07EC1203538F198E188D178C9C
:10086500167BFF7A0E7925120F1F121048120A36D1
:10087500121048120F19120CBBAC06AD07EC12038F
:10088500538F198E188D178C167BFF7A0E793112BE
:100895000F1F12104879C87842120A3A12104812EE
:1008A5000F19120CBBAC06AD07EC1203538F198E52
:1008B500188D178C167BFF7A0E793D120F1F1210BB
:1008C50048E4FBFA79C87842120A3D121048120F23
:1008D50019120CBBAC06AD07EC1203538F198E1819
:1008E5008D178C167BFF7A0E7949120F1F1210484F
:1008F500E4FBFA79C87842120A3D121048120F1922
:09090500120F19120FFD0207F791
:100EA600759601E4F595D2A0C2A1C2A7120FFDE482
:100EB600FD7F6B120FBB7D077F19120FBB7D067F6F
:100EC6001A120FBB7D187F1B120FBB7D017F1C12F0
:0B0ED6000FBB7BFF7A0E7955020F1F47
:0A103500E5A2543FF5A27598502281
:0610480000007F1BDFFE2B
:01104E00227F
:0E0FFD0000007F5C7E327DEEDDFEDEFCDFFA62
:01100B0022C2
:09103F002002FDEFD202F5992216
:060F19007BFF7A0E791641
:100F1F008B088A09890AAB08AA09A90A12045A6020
:100F2F0013050AE50A7002050914F912045AFF1293
:050F3F00103F80E222DA
:0F100C00D2A3D2A2121048C2A3121048C2A2222D
:0C102900C2A3D2A2121048D2A3021048A9
:0E101B00A20092A3D2A2121048C2A202104854
:100FEC00D2A2121048A2A39200C2A2121048A200D0
:010FFC0022D2
:020F6D00AE07CD
:100F6F00E4FDEDC39408748094805013EE25E0FEE9
:100F7F0092A3D2A2121048C2A21210480D80E312FF
:040F8F000FEC40FB28
:010F9300223B
:100F4400E4FED2A3FDEDC39408748094805017EEA0
:100F540025E0FED2A2121048A2A3E4334206C2A2A4
:080F64001210480D80DFAF06FA
:010F6C002262
:100FBB00AC05AB0712100C7FD0120F6DAF03120FE5
:090FCB006DAF04120F6D02102934
:020F9400AC07A8
:100F960012100C7FD0120F6DAF04120F6D12100CD1
:100FA6007FD1120F6D120F44AE07D20012101B1222
:040FB6001029AF0649
:010FBA002214
:02000300AB0749
:10000500120F94AA07EB04FF120F94AD07EAFE7CCA
:0700150000E42DFFEC3EFEAC
:01001C0022C1
:060EE1008E838F827F0367
:100EE700EF24FE6014146015146016146017146064
:100EF70018240570197F3B80127F3D800E7F3F804D
:100F07000A7F4380067F4580027F47020003E4FE95
:020F1700FF22B7
:0C05FB008E088F098C0A8D0B8A0C8B0D6A
:100607009000041204FC00000000E50E14700302C1
:1006170006A514700302071B240260030207AFAC90
:100627000AAD0BEC120353C004C005C006C007ACEB
:100637000AAD0BEC120353D003D002D001D0001245
:10064700011EC004C005C006C007AC08AD09EC1206
:100657000353C004C005C006C007AC08AD09EC12BF
:100667000353D003D002D001D00012011ED003D013
:1006770002D001D00012002D120C15C004C005C015
:1006870006C007AC0CAD0DEC120353A804A905AACC
:1006970006AB07D007D006D005D00402078FAC0CF5
:1006A700AD0DEC120353C004C005C006C007AC0C67
:1006B700AD0DEC120353D003D002D001D0001201CC
:1006C7001EC004C005C006C007AC0AAD0BEC120380
:1006D70053C004C005C006C007AC0AAD0BEC12033B
:1006E70053D003D002D001D00012011ED003D00294
:1006F700D001D00012002D120C15C004C005C00691
:10070700C007AC08AD09EC120353D003D002D001E7
:10071700D0008074AC0CAD0DEC120353C004C005BF
:10072700C006C007AC0CAD0DEC120353D003D002CA
:10073700D001D00012011EC004C005C006C007AC1E
:1007470008AD09EC120353C004C005C006C007ACCE
:1007570008AD09EC120353D003D002D001D0001228
:10076700011ED003D002D001D00012002D120C15AB
:10077700C004C005C006C007AC0AAD0BEC1203539A
:10078700D003D002D001D00012022790000012043B
:10079700F0900000E0FCA3E0FDA3E0FEA3E0FF1261
:1007A700092E9000041204F0E4FFFE7DE17C4490E2
:1007B7000004E0F8A3E0F9A3E0FAA3E0FB12011EAE
:0E07C7007BF97A0F7949784012022702038CE1
:040CBB007F047E0034
:100CBF00EE6003020D60EF24FE602D14604414609B
:100CCF006414606514606624056003020D607F0183
:100CDF00120EE7C006C0077F02120EE7120EE1AA3E
:100CEF0006AB07750E0180327F01120EE7C006C0FA
:100CFF00077F02120EE7120EE1AA06AB07750E026E
:100D0F0080187F01120EE7C006C0077F02120EE7A0
:100D1F00120EE1AA06AB07E4F50EAD82AC83D00745
:100D2F00D0060205FB7F0480067F0580027F061236
:100D3F000EE7AC06AD07EC120353E4FBFA798078AB
:100D4F0046120227E4FBFA7975784412011E02035A
:050D5F008CE4FEFF2200
:080B25008F108E0F8D0E8C0D58
:100B2D00E4F514F513F512F511F515EC3350187FA6
:100B3D002D12103FAF10AE0FAD0EAC0D1204C28FC3
:100B4D00108E0F8D0E8C0DAF10AE0FAD0EAC0DECDB
:100B5D004D4E4F70057F3002103FAF10AE0FAD0EF2
:100B6D00AC0DEC4D4E4F6061AF14AE13AD12AC1128
:100B7D00E47B0AFAF9F81204738F148E138D128C1C
:100B8D0011E47B0AFAF9F8AF10AE0FAD0EAC0D12F1
:100B9D000E62AC00AD01AE02E5142BF514E5133E6B
:100BAD00F513E5123DF512E5113CF511AF10AE0F41
:100BBD00AD0EAC0DE47B0AFAF9F8120E628F108EB1
:100BCD000F8D0E8C0D05158091AF151515EF60333A
:100BDD00E47B0AFAF9F8AF14AE13AD12AC11120E94
:100BED0062EB2430FF12103FAF14AE13AD12AC11F7
:100BFD00E47B0AFAF9F8120E628F148E138D128CA3
:030C0D001180C68D
:010C100022C1
:100A360079207841E4FBFAAF19AE18AD17AC16125F
:050A46000227750C0100
:080A4B008F0B8E0A8D098C0847
:100A53009000001204FC000000009000041204FC4B
:100A630000000000E4FFFEFDFCAB0BAA0AA909A8E5
:100A7300081202C450187F2D12103FAF0BAE0AADFF
:100A830009AC0812033D8F0B8E0A8D098C08AF0B3E
:100A9300AE0AAD09AC0812038C9000001204F0AF4B
:100AA3000BAE0AAD09AC08C004C005C006C0079070
:100AB3000000E0FCA3E0FDA3E0FEA3E0FFEC1203D3
:100AC3004EA804A905AA06AB07D007D006D005D0C7
:100AD300041200298F0B8E0A8D098C08E50C601E09
:100AE300AF0BAE0AAD09AC08E4FBFA7920784112EA
:100AF300011E8F0B8E0A8D098C08150C80DE900069
:100B030000E0FCA3E0FDA3E0FEA3E0FF120B257FC2
:100B13002E12103FAF0BAE0AAD09AC0812038C02C4
:020B23000B25A0
:03002300020FD4F5
:100FD400C0D0309809C298859980A29A92CC309951
:080FE40004C299C202D0D03210
:100026000203F8E86480F8E933E83360110460F00D
:10003600ED33EC337009E8FCE9FDEAFEEBFF220440
:1000460060DED3EB9FEA9EE99DE8C2E78CF0C2F73B
:1000560095F0400CE8CCF8E9CDF9EACEFAEBCFFB07
:100066001203C385D0F05804700320D5B3E804709A
:10007600075002B2D502040292D5EC0460F7E4CC34
:10008600C0E0C398F8603B94186008400DD0E0FBD0
:100096000203DAE4FBFAC9FC8028E830E406E4C986
:1000A600FBE4CAFCE830E305E4C9CACBFCE8540724
:1000B6006010F8C3E913F9EA13FAEB13FBEC13FC2F
:1000C600D8F130F52FC3E49CFCEF9BFFEE9AFEEDD2
:1000D60099FDD0E0FBEF4E4D4C701222DB0302037C
:1000E600FFEC2CFCEF33FFEE33FEED33FDED30E796
:1000F600EB0203DAEF2BFFEE3AFEED39FDD0E0FB23
:1001060050130BBB0003020402ED13FDEE13FEEFCA
:0801160013FFEC13FC0203DAF5
:10011E00EC4D6011E8497017ED33EC3304600DE4DB
:10012E00FCFFFEFD22E933E8330470F80203F812F7
:10013E0003C358046009E4CC2481500628500902F8
:10014E0004022840030203FFC0E0EB4A7044B9806A
:10015E0006D0E0FB0203EEEF4E701CBD8008EBFFF5
:10016E00EAFEE9FD80EBE98DF0A4FEE5F002020760
:10017E00E9CDF9EAFEEBFFEF89F0A4FCE5F0CE89BC
:10018E00F0A42EFFE435F0CD89F0A42DFEE435F079
:10019E008067EF4E7005BD80D780C3EF8BF0A4ACA7
:1001AE00F0EE8BF0A42CFCE435F0F8EF8AF0A42CE2
:1001BE00E5F038FCE433CB8DF0A42CFCE5F03BF8F5
:1001CE00EE8AF0A42CFCE5F038F8E433CF89F0A4E5
:1001DE002CFCE5F038CF3400CE89F0A42FFFE5F0EB
:1001EE003EFEE433C98DF0A42EFEE5F039CD8AF043
:1001FE00A42FFFE5F03EFEE43DFD33D0E0FB5007BB
:10020E000BBB000F020402EC2CFCEF33FFEE33FEAF
:06021E00ED33FD0203DADE
:10022400020402EC5D046005E8590470030203F85B
:100234001203C3580460F6EC4860F2EC7004FDFE4F
:10024400FF22C860DB2481C85009C39860025006AD
:100254000203FF9850CAF582E9294B4A7005AB8224
:100264000203EE75F0007C1A7880C3EF9BEE9AEDE2
:1002740099400DC3EF9BFFEE9AFEED99FDE842F025
:10028400DC23ACF0D0E0FFD0E0FED0E0FDAB822078
:10029400E7101BEB60BAEC2CFCEF33FFEE33FEED02
:1002A40033FD0203DAE803F830E705C0F075F00027
:1002B400EF2FFFEE33FEED33FD40B830E7C280AAE6
:1002C40074F8CC6480CCC86480C8F58204604FC3E1
:1002D400EB9FF5F0EA9E42F0E99D42F0E89C45F080
:1002E400603C501DE5825FFFE582D313CB5BCBF40A
:1002F4002B5582FB50280ABA002409B90020088033
:100304001DE5825BFBE582D313CF5FCFF4C3132FCC
:100314005582FF50090EBE00050DBD00010CC3EB54
:100324009FF5F0EA9E42F0E99D42F0E89C45F060BA
:0903340007CC4820E701B3EC22DC
:10033D00ED33EC33600A047003BD8004ECB2E7FCCE
:01034D00228D
:10034E0075F020800E75F010800575F0087D007E2A
:10035E00007F003392D530D5031204C2EC33401027
:10036E00EF33FFEE33FEED33FDEC33FCD5F0ED2233
:0E037E00E5F0247EA2D513CC92E7CDCEFF226F
:10038C00EDD2E7CD33EC3392D524814006E4FFFE69
:10039C00FDFC22FCE4CFCECDCC24E0501174FF80C8
:1003AC00EDC3CC13CCCD13CDCE13CECF13CF047065
:0703BC00F030D5DE0204C29F
:100C11000203F822EDA2E7D2E7F9EC3340F260F3E8
:100C2100B4FF08ED547F70E8020402F82481C2E0A9
:100C3100C0E0F40428FAC313FCED92E7FD8C0F8D9C
:100C4100108E118F12EEA2E7E9BA7F02C3133400AE
:100C51009400FA75F091A4E5F013F494FE8AF0A4DF
:100C610033E5F033248CD313FDE492E7FE7F007C5F
:100C71003F758302ECC0E0F8EDC0E0F9EEC0E0FAA8
:100C8100EFC0E0FBAC0FAD10AE11AF12120227D0D6
:100C9100E0FBD0E0FAD0E0F9D0E0F812002DED64ED
:100CA10080FD30E7011CD583CBED33CC33F8D0E0A8
:0A0CB100A2E71328C313CC13FD22A1
:10090E00BE1249253E4CCCCDBEAAAAAB3F800000FC
:10091E003E7ADBB03EED63383F24BC7D3F490FDBB2
:10092E00ED33ECC2E7CC339200B4FF13ED547F608D
:10093E00030203F87FDB7E0F7DC97C3F020A29C2CA
:10094E0001C3947F401E7007EDD2E794904015EFDF
:10095E00FBEEFAEDF9ECF87F007E007D807C3F1215
:10096E000227D201ED33EC33248430E705E4C0E0F6
:10097E00806D04FAEDD2E754F0C333DAFD54073438
:10098E00002323C0E0CCC0E0F8EDC0E0F9EEC0E0FB
:10099E00FAEFC0E0FBE4120358EC24FEFC8C0F8D42
:1009AE00108E118F1212011E7B007A007980783F13
:1009BE0012002DECC50FB2E7FCEDC510FDEEC51112
:1009CE00FEEFC512FFD0E0FBD0E0FAD0E0F9D0E0A8
:1009DE00F812002DA80FA910AA11AB121202278C23
:1009EE000F8D108E118F1290090E740312040DA824
:1009FE000FA910AA11AB1212011ED0E0600F241A1B
:100A0E00F582E43409F5831204E012002D30010B57
:100A1E007BDB7A0F79C978BF12002DED33EC336092
:080A2E0006ECA20092E7FC2295
:1003C300E9D2E7C933E833F892D5EDD2E7CD33EC80
:0703D30033FC5002B2D522F9
:1003DA00EC30E7100FBF000C0EBE00080DBD000484
:1003EA000BEB6014A2D5EB13FCED92E7FD2274FF30
:1003FA00FCFDFEFF22E480F8A2D574FF13FC7D8089
:03040A00E480EF9C
:10040D00C0E0EFFBEEFAEDF9ECF812011ED0E0F5CD
:10041D00F0EFFBEEFAEDF9ECF81204D0A3A3A3A3D1
:10042D00E8C0E0E9C0E0EAC0E0EBC0E0C0F01201D6
:10043D001E1204E0A3A3A3A312002DD0F0D0E0FB65
:0D044D00D0E0FAD0E0F9D0E0F8D5F0D422EC
:03000000020D648A
:0C0D6400787FE4F6D8FD758120020DAB0D
:10045A00BB010689828A83E0225002E722BBFE02A0
:09046A00E32289828A83E49322D3
:10047300E88FF0A4CC8BF0A42CFCE98EF0A42CFC28
:100483008AF0EDA42CFCEA8EF0A4CDA8F08BF0A4A6
:100493002DCC3825F0FDE98FF0A42CCD35F0FCEB05
:1004A3008EF0A4FEA9F0EB8FF0A4CFC5F02ECD39CA
:0F04B300FEE43CFCEAA42DCE35F0FDE43CFC2237
:100E6200C2D5E830E70FB2D5E4C39BFBE49AFAE4BB
:100E720099F9E498F8EC30E717B2D5120E981205FA
:100E820069E4C39BFBE49AFAE499F9E498F88003D5
:100E920012056930D50DE4C39FFFE49EFEE49DFD7B
:040EA200E49CFC22AE
:0E04C200C3E49FFFE49EFEE49DFDE49CFC224B
:1004D000E493FC740193FD740293FE740393FF2272
:1004E000E493F8740193F9740293FA740393FB2272
:0C04F000ECF0A3EDF0A3EEF0A3EFF0227F
:1004FC00A8828583F0D083D08212051312051312C3
:10050C000513120513E473E493A3C583C5F0C583E7
:10051C00C8C582C8F0A3C583C5F0C583C8C582C849
:01052C0022AC
:100D70000207D5E493A3F8E493A34003F68001F2BD
:100D800008DFF48029E493A3F85407240CC8C33384
:100D9000C4540F4420C8834004F456800146F6DF53
:100DA000E4800B010204081020408090104FE47E84
:100DB000019360BCA3FF543F30E509541FFEE49348
:100DC000A360010ECF54C025E060A840B8E493A30F
:100DD000FAE493A3F8E493A3C8C582C8CAC583CA3A
:100DE000F0A3C8C582C8CAC583CADFE9DEE780BEF2
:01105500009A
:10052D0075F008758200EF2FFFEE33FECD33CDCC85
:10053D0033CCC58233C5829BED9AEC99E582984008
:10054D000CF582EE9BFEED9AFDEC99FC0FD5F0D6E5
:10055D00E4CEFBE4CDFAE4CCF9A88222B800C1B90F
:10056D000059BA002DEC8BF084CFCECDFCE5F0CB4D
:10057D00F97818EF2FFFEE33FEED33FDEC33FCEB86
:10058D0033FB10D703994004EB99FB0FD8E5E4F941
:10059D00FA227818EF2FFFEE33FEED33FDEC33FC2E
:1005AD00C933C910D7059BE99A4007EC9BFCE99A22
:1005BD00F90FD8E0E4C9FAE4CCFB2275F010EF2F67
:1005CD00FFEE33FEED33FDCC33CCC833C810D70767
:1005DD009BEC9AE899400AED9BFDEC9AFCE899F8A2
:0E05ED000FD5F0DAE4CDFBE4CCFAE4C8F92235
:00000001FF
